:020000040800F2
:1000000000040020C100000861020008610300082C
:100010006103000861030008610300086103000830
:100020006103000861030008610300086103000820
:100030006103000861030008610300086103000810
:100040006103000861030008610300086103000800
:1000500061030008610300086103000861030008F0
:1000600061030008610300086103000861030008E0
:10007000610300086103000861030008E10800084B
:1000800061030008610300086103000861030008C0
:1000900061030008610300086103000861030008B0
:1000A00061030008610300086103000861030008A0
:1000B000710700086103000861030008610300087C
:1000C00072B6224880F30988022080F31488BFF3B7
:1000D0006F8F00F0F5FE00F00BFE1D481D491E4A13
:1000E000914202DA08600431FAE71C49174A91424A
:1000F00002DA08600431FAE719491A4A1A4B9A429F
:1001000004DA0868106004310432F8E70020174967
:10011000174A914202DA08600431FAE700F090FED3
:1001200000F0C6FE134C144DAC4203DA2168884738
:100130000434F9E700F024FC104C114DAC4203DA12
:10014000216888470434F9E70E4908470006002073
:1001500055555555000000200004002000040020E3
:10016000C00F000800060020000600200006002046
:1001700048090020C0000008C0000008C0000008B6
:10018000C0000008A10E00080000000000000000F0
:10019000F0B544464D4656465F46F0B46B46CB60DC
:1001A000C3689D46F0BCA046A946B246BB46F0BD1A
:1001B00062B6281CA047002000F002FE00F020FEDE
:1001C000014A024B1360FEE704ED00E000000080EE
:1001D000FEE7C04600000000000000000000000034
:1001E00072B60722C31D93430649074A086812687E
:1001F000121A934203D8C3180B6062B670470020EE
:10020000FBE7C04620090020000600200000000097
:100210008023024A11680B4313607047004400407A
:100220000F3011D072B6EFF30983203B83F30988B6
:1002300080225204DA61064A1168926989689268DC
:10024000914202D8034A9A617047034A9A61FBE7D8
:10025000D0070020C0010008BD0100080000000018
:10026000EFF30983203383F3098862B67047C046F1
:1002700072B6037F072B0CD8114A9B00D3589F46B8
:10028000026A936801339360026843681A600268E7
:10029000536001235B420362002382680377094BAA
:1002A0001B6899689142FBD25A68036042601060F3
:1002B000586062B670470022036A1A60E9E7C046D8
:1002C000D00E0008D0070020000000000000000051
:1002D000002382680377054B1B6899689142FBD223
:1002E0005A6803604260106058607047D007002071
:1002F000F8B5184B05005C68043300271E009C42CB
:1003000003D11EE02468B4421BD0E3682B43E360B2
:10031000002D02D022691A42F4D06068A368426BB3
:100320001343027F43630A2A0CD00B2AEAD1026AE4
:1003300013409A42E6D10762FFF7CAFF2468B4422D
:10034000E3D1F8BD026A1A42DCD00762FFF7C0FFB2
:10035000F4E7C04650070020000000000000000045
:10036000FEE7C046000000000000000000000000A2
:1003700070B50025114B0562996982688C68A242AC
:100380000AD805771B6899688A42FBD95A680360C6
:1003900042601060586070BD1A000D771268956851
:1003A000AC42FBD954680A604C602160516098618E
:1003B00001230377FFF7ECFEEDE7C046D0070020EE
:1003C000064B10B5996908771868026853601A607F
:1003D000986101230377FFF7DBFE10BDD0070020F3
:1003E000F0B587B04B1C47D03F4E01ADB3692B61D0
:1003F0003E4BEB608023DB055A6A01295DD934004E
:10040000F3691C34A3425CD051189C68B26A8A1A02
:10041000A24207D28027FF057963944204D21B6869
:10042000121B9C689442FAD35968019369600D606D
:100430005D60AA6099688A1A9A6001235B427362C0
:10044000FFF7BEFF049B002B12D0F369AB4217D01D
:100450006A68019B1360019B5A600022EA603200C7
:100460001C32934204D09968AA688C4662449A6010
:10047000B369186A07B0F0BDFFF7A2FF1A4EF7E79D
:10048000330000212A681C33F2615360E9609A420C
:1004900026D09168AB688C46634493608022D20575
:1004A000516AB26A8A1A9342E2D99B1A012B06D981
:1004B0008022CB18D2055363DAE702219FE702239B
:1004C000F6E701936B608023B262A96051180022A5
:1004D000DB05F561356259631A610232DA60AFE714
:1004E0008023DB05D960C3E7D00700207102000834
:1004F00010B500290AD0074B42689B6918605A6002
:10050000136043600420FFF76BFF10BD01204042E1
:10051000FBE7C046D00700200000000000000000FC
:10052000F0B54E46454657469946C369E0B40400C7
:100530000E001500984672B60027A368002B1ED047
:10054000A368013BA36063695A1C6261721C9246F6
:1005500032781A7063692269934201D3E368636158
:100560004346002B01D02000C04762B6013D013751
:10057000002D0BD072B6A3685646002BE0D1494639
:100580002000FFF7B5FF0028D7D062B638001CBCAA
:1005900090469946A246F0BD000000000000000011
:1005A00010B53030FFF7BCFF10BDC04600000000A2
:1005B000012310B530305B42FFF7B2FF10BDC046DB
:1005C00070B504000E00150072B605E02900200089
:1005D000FFF78EFF002817DBA368002BF6D0A36877
:1005E000013BA36063695A1C62611E7063692269E2
:1005F000934201D3E3686361E369002B01D02000DB
:10060000984762B6002070BD62B6FCE700000000AB
:1006100010B53030FFF7D4FF10BDC0460000000019
:10062000012210B530305242FFF7CAFF10BDC0465C
:10063000F8B54F4646460400C0B4894690461D00B2
:10064000C76972B60026002F08D02000B84705E021
:1006500029002000FFF74CFF002817D1A368002BCA
:10066000F6D0A368013BA360A3695A1CA2614A4665
:100670001B789355A3692269934201D3E368A36170
:1006800062B60136B04502D072B6DCE762B6300021
:100690000CBC90469946F8BD000000000000000028
:1006A00010B50C30FFF7C4FF10BDC04600000000BD
:1006B000012310B50C305B42FFF7BAFF10BDC046F6
:1006C00070B504000D0072B6C369002B07D09847BF
:1006D00005E029002000FFF70BFF00280EDBA368D0
:1006E000002BF6D0A368A269013BA360531CA36151
:1006F00010782269934201D3E368A36162B670BDAA
:1007000010B50C30FFF7DCFF10BDC0460000000044
:10071000012110B50C304942FFF7D2FF10BDC04691
:1007200010B5010072B60820FFF75AFE62B610BD80
:1007300070B590240126084B084A9B69E4059A612C
:100740000225268306482583FFF7EAFF66830448CF
:100750006583FFF7E5FFF3E7D0070020100F0008DF
:1007600088130000000000000000000000000000EE
:10077000F0B546464F46574CC0B4666F83B03768F5
:10078000F569F04635622B0747D1EB053ED4AB0641
:1007900018D480233B4201D02B4253D16B0609D59C
:1007A00072B6636CA26C934200D172E040239F4307
:1007B000376062B64046FFF733FD03B00CBC90468D
:1007C0009946F0BD72B6B38CDBB299466369002BD3
:1007D00067D0236A626A934267D0626901326261BC
:1007E0005A1C22624A461A70236AE26993424DD229
:1007F0002300E0680C33984206D00268E260536040
:1008000000230362FFF764FD62B6C2E772B6802080
:100810008000FFF76DFD62B6B9E72807C00FC00181
:10082000EB0701D520231843AB0701D5402318431C
:100830006B0702D580235B00184372B6FFF758FDA3
:1008400062B6A2E772B6A36C626C9A4234D0A26B15
:100850000132A2635A1CA2641B789946236C9A4207
:1008600001D3E36BA3642300206B3033984206D09E
:1008700002682263536000230362FFF729FD4B46A1
:100880006A46D380D388338562B687E7A36923623B
:10089000AEE7A36B002B00D188E71020FFF728FDFF
:1008A00084E70420FFF724FD93E76269002A94D0CF
:1008B0008020FFF71DFDA7E7A26B002AC7D0082004
:1008C000FFF716FDC0233A009A43803B1343336081
:1008D000DAE7C046500700200000000000000000DA
:1008E000F8B546464F46C0B48026F6053369F04653
:1008F0009B0706D44046FFF793FC0CBC90469946F4
:10090000F8BD0023336172B6194C706AE369A16ABD
:100910009A68451A954218D325000027B1461C3520
:100920008A18A2621A68D9685560E261DF60AA423B
:1009300018D062B61869884772B64A46E369506AA9
:10094000A16A9A68461AB242EAD91C34A34207D077
:100950005218121A012A08D980231218DB055A638B
:1009600062B6C7E74A46D760E3E70222F4E7C0462B
:10097000D007002000000000000000000000000080
:10098000B54B01219A6AF0B5002257464E464546BE
:100990004942E0B499629A62186919611A61D9688A
:1009A000AE48802401438020D960DA60D9694005CF
:1009B0000143AB48D9610168640021430160C02153
:1009C000186A8900014080208000814203D0802184
:1009D000490219621A6280209F4B00021A6A024281
:1009E00007D18022196A9200114319621A6A0243E0
:1009F0001A629C21984AC903536900250B4353612D
:100A00000121902304269748DB0549425D609960E7
:100A1000D8609548954C586195481D625D62186094
:100A2000944B95485D609960DC6058611D625D6221
:100A30001E60924BC7275D609960DC6058611D6243
:100A40005D621D608E4B033E5D609960DC605861A5
:100A50001D625D621D608B4B8B4C180010C058608E
:100A600018000C30D8601861180054309861586232
:100A7000186218001C006430D861D8639864586408
:100A8000180030341C635C631024743018647F4891
:100A90005D61D8647E489C6358677E481E72986783
:100AA0009D62DB621B657C4BBF00D859EF34A043CD
:100AB0000400C0202043D8518024C0206405400099
:100AC0001C501C60D46980273443D461734C3F06AA
:100AD000A2683243A2608022714CD2059462C32482
:100AE000D162A40095615563D5605560566116606A
:100AF0001A591202120A3A431A51802212021A504B
:100B00001A60684A684B106A684C034013622300FD
:100B100007221C33E3612362654B61620733654939
:100B200093430B60644B24609343644A6460136096
:100B3000634B644A9D601A601A001032DD601A61CE
:100B4000A560A5625A619D614D232200E5540133E1
:100B5000E65423005432303362652200402723617B
:100B60006361A3614C235832A763E766A566656697
:100B7000A56424646464A265E265E65462B6524AE0
:100B8000A3699A6172B6220084232D32FF32E250AB
:100B90004E4AB833E2500433E5504D4B200099469D
:100BA000A6234A465B00E250CC3BE6507E3B98468B
:100BB00042469233E2548C220133E5541F33E6500F
:100BC000043BE550043BE550163BE654063BE5503C
:100BD0009A46083BE45063697830A35022001861BC
:100BE0009C239C32E2502300A022A033A350043265
:100BF000A3506061FFF7BCFB62B65246354BA35071
:100C000072B63548354A03002533FF33C3609A2353
:100C10005B00C2504A460433C5500C33C2504346B1
:100C20000377636945774361C76385634563867767
:100C30008561046118610300243343620300283393
:100C400087608362C3626061FFF792FB62B62448EB
:100C5000FFF766FDFBE7C04600100240FFFFBFFF45
:100C60000070004055555565FCFF00005555555521
:100C700015A9002800040048FFFF000000080048F4
:100C80000014004850070020A00F000811020008BF
:100C900000440040006CDC0200E100E0005801402C
:100CA000BF12000000ED00E0FFFF00FFD0070020B2
:100CB000480900202009002000180020000600201C
:100CC00028090020E1010008F00E0008D101000809
:100CD000B1010008180F00080806002031070008BD
:100CE00010270000000000000000000000000000CD
:100CF000012302202D490A6813430B600A682B4B1D
:100D00001042FBD003215A680C208A4319005A6014
:100D10005A685A604B68254A0340FBD1F920116894
:100D2000014011605360516B01330B435363F7383B
:100D3000516B1E4B0842FBD080215A6B49020A437B
:100D400080205A631A008002516B184B0142FBD07D
:100D50000122596A02200A435A621A00516A134B4F
:100D60000842FBD0A02292035A60002280218020FA
:100D7000DA621A631A6849040A431A60800419681F
:100D80000A4A0142FBD01121094B0C2019600223B1
:100D900051680B435360536804490340082BFAD150
:100DA0008A69073B13438B617047C04600100240BD
:100DB00000200240000000000000000000000000D1
:100DC00070B572B60D4B9C6925002062606A2435AF
:100DD000854206D003686362FFF77AFA606AA84228
:100DE000F8D1637F9B0704D1226963691A61226984
:100DF00053610F20FFF7E4FA70BDC046D007002012
:100E00000C4A10B51068916903685A6013609061CC
:100E10000122027700220A778A6800E01B689C683A
:100E20009442FBD85A680B604A6011605960FFF722
:100E3000AFF910BDD0070020000000000000000046
:100E400080229446F0B50026104F114D114C124BE4
:100E50001249BC449C420DD91A0001C901C29442F6
:100E6000FBD8DA431419A4080134A4001B199D42CD
:100E700002D940C39D42FCD81037674504D0BC68F6
:100E8000FD6839687B68E5E7F0BDC046200F0008C3
:100E9000480900204809002048090020C00F000828
:100EA000FEE7C04600000000000000000000000057
:100EB0007047C04600000000000000000000000075
:100EC0007047C04600000000000000000000000065
:100ED000B20200089202000892020008B60200085E
:100EE00088020008800200089202000888020008B8
:100EF0006D61696E00164418040444080C1014183F
:100F0000001C1D1E0000000000000000000000008A
:100F1000626C696E6B65720069646C65000000004C
:100F2000C00F000848090020480900204809002097
:100F3000C00F0008000000000000000000000000DA
:100F4000C00F0008000000000000000000000000CA
:100F5000C00F0008000000000000000000000000BA
:100F6000C00F0008000000000000000000000000AA
:100F7000C00F00080000000000000000000000009A
:100F8000C00F00080000000000000000000000008A
:100F9000C00F00080000000000000000000000007A
:100FA000B1050008B1060008210600081107000875
:100FB0001106000801070008A1050008A1060008A5
:04000005080000C12E
:00000001FF
